:10000000009FFF1F619C00002104000029040000E4
:100010003104000039040000410400000000000029
:100020000000000000000000000000004904000083
:1000300051040000000000002F3E000059040000A1
:100040006D0400007F04000091040000A304000080
:10005000B5040000C7040000D9040000EB04000050
:10006000FD0400000F05000021050000330500001D
:100070004505000057050000690500007B050000EC
:100080008D0500009F050000B1050000C3050000BC
:10009000D5050000E7050000F90500000B0600008B
:1000A0001D0600002F060000410600005306000058
:1000B0006506000077060000890600009B06000028
:1000C000AD060000C3060000D9060000EF060000E0
:1000D000050700001B07000031070000470700006C
:1000E0005D07000073070000890700009F070000FC
:1000F000B5070000CB070000E1070000F70700008C
:100100000D08000023080000390800004F08000017
:10011000650800007B08000091080000A7080000A7
:10012000BD080000D3080000E9080000FF08000037
:10013000150900002B0900004109000057090000C3
:100140006D0900008309000099090000AF09000053
:10015000C5090000DB090000F1090000070A0000E2
:100160001D0A0000330A0000490A00005F0A00006F
:10017000750A00008B0A0000A10A0000B70A0000FF
:10018000CD0A0000E10A0000F50A0000090B00009A
:100190001D0B0000310B0000450B0000590B000047
:1001A0006D0B0000810B0000950B0000A90B0000F7
:1001B000BD0B0000D10B0000E50B0000F90B0000A7
:1001C0000D0C0000210C0000350C0000490C000053
:1001D0005D0C0000710C0000850C0000990C000003
:1001E000AD0C0000C10C0000D50C0000E90C0000B3
:1001F000FD0C0000110D0000250D0000390D000060
:100200004D0D0000630D0000770D0000910D000002
:10021000A70D0000BD0D0000D50D0000EB0D000086
:10022000010E0000190E00002F0E0000450E000008
:100230005D0E0000730E0000890E00009F0E00008E
:10024000B50E0000DF0F0000CD1200008913000082
:10025000451600003D9E0000419E0000459E0000A6
:1002600039180000511B0000D91D0000D91F0000E3
:1002700029210000552300005D25000051260000C3
:10040000FFFFFFFFFFFFFFFFFFFFFFFFFFFFFFFFFC
:10041000FFFFFFFFFFFFFFFFFFFFFFFFFFFFFFFFEC
:1004200080B502F05DFA01BD80B5AFF3008001BD7B
:1004300080B5AFF3008001BD80B5AFF3008001BD92
:1004400080B5AFF3008001BD80B5AFF3008001BD82
:1004500080B5AFF3008001BD80B502F050FA02F024
:1004600095FA02F0F5FA02F0A3FA01BD80B5DFF8C3
:100470001C190868002801D00868804701BD80B5B4
:10048000DFF808194868002801D04868804701BD96
:1004900080B5DFF8F8188868002801D088688047A0
:1004A00001BD80B5DFF8E418C868002801D0C8682D
:1004B000804701BD80B5DFF8D4180869002801D055
:1004C0000869804701BD80B5DFF8C0184869002879
:1004D00001D04869804701BD80B5DFF8B018886950
:1004E000002801D08869804701BD80B5DFF89C18DD
:1004F000C869002801D0C869804701BD80B5DFF810
:100500008C18086A002801D0086A804701BD80B5B0
:10051000DFF87818486A002801D0486A804701BD92
:1005200080B5DFF86818886A002801D0886A80479B
:1005300001BD80B5DFF85418C86A002801D0C86A28
:10054000804701BD80B5DFF84418086B002801D052
:10055000086B804701BD80B5DFF83018486B002874
:1005600001D0486B804701BD80B5DFF82018886B4B
:10057000002801D0886B804701BD80B5DFF80C18DA
:10058000C86B002801D0C86B804701BD80B5DFF87B
:10059000FC17086C002801D0086C804701BD80B5AD
:1005A000DFF8E817486C002801D0486C804701BD8F
:1005B00080B5DFF8D817886C002801D0886C804798
:1005C00001BD80B5DFF8C417C86C002801D0C86C25
:1005D000804701BD80B5DFF8B417086D002801D051
:1005E000086D804701BD80B5DFF8A017486D002871
:1005F00001D0486D804701BD80B5DFF89017886D48
:10060000002801D0886D804701BD80B5DFF87C17D8
:10061000C86D002801D0C86D804701BD80B5DFF8E6
:100620006C17086E002801D0086E804701BD80B5A8
:10063000DFF85817486E002801D0486E804701BD8A
:1006400080B5DFF84817886E002801D0886E804793
:1006500001BD80B5DFF83417C86E002801D0C86E20
:10066000804701BD80B5DFF82417086F002801D04E
:10067000086F804701BD80B5DFF81017486F00286C
:1006800001D0486F804701BD80B5DFF80017886F43
:10069000002801D0886F804701BD80B5DFF8EC16D7
:1006A000C86F002801D0C86F804701BD80B5DFF852
:1006B000DC16D1F88000002802D0D1F880008047F5
:1006C00001BD80B5DFF8C416D1F88400002802D03F
:1006D000D1F88400804701BD80B5DFF8B016D1F8AD
:1006E0008800002802D0D1F88800804701BD80B57D
:1006F000DFF89816D1F88C00002802D0D1F88C00D1
:10070000804701BD80B5DFF88416D1F8900000283D
:1007100002D0D1F89000804701BD80B5DFF86C169B
:10072000D1F89400002802D0D1F89400804701BD90
:1007300080B5DFF85816D1F89800002802D0D1F81B
:100740009800804701BD80B5DFF84016D1F89C00C5
:10075000002802D0D1F89C00804701BD80B5DFF8A9
:100760002C16D1F8A000002802D0D1F8A0008047B4
:1007700001BD80B5DFF81416D1F8A400002802D01E
:10078000D1F8A400804701BD80B5DFF80016D1F88C
:10079000A800002802D0D1F8A800804701BD80B58C
:1007A000DFF8E815D1F8AC00002802D0D1F8AC0091
:1007B000804701BD80B5DFF8D415D1F8B00000281E
:1007C00002D0D1F8B000804701BD80B5DFF8BC157C
:1007D000D1F8B400002802D0D1F8B400804701BDA0
:1007E00080B5DFF8A815D1F8B800002802D0D1F8FC
:1007F000B800804701BD80B5DFF89015D1F8BC0086
:10080000002802D0D1F8BC00804701BD80B5DFF8D8
:100810007C15D1F8C000002802D0D1F8C000804774
:1008200001BD80B5DFF86415D1F8C400002802D0FE
:10083000D1F8C400804701BD80B5DFF85015D1F86C
:10084000C800002802D0D1F8C800804701BD80B59B
:10085000DFF83815D1F8CC00002802D0D1F8CC0050
:10086000804701BD80B5DFF82415D1F8D0000028FD
:1008700002D0D1F8D000804701BD80B5DFF80C155B
:10088000D1F8D400002802D0D1F8D400804701BDAF
:1008900080B5DFF8F814D1F8D800002802D0D1F8DC
:1008A000D800804701BD80B5DFF8E014D1F8DC0046
:1008B000002802D0D1F8DC00804701BD80B5DFF808
:1008C000CC14D1F8E000002802D0D1F8E000804735
:1008D00001BD80B5DFF8B414D1F8E400002802D0DF
:1008E000D1F8E400804701BD80B5DFF8A014D1F84D
:1008F000E800002802D0D1F8E800804701BD80B5AB
:10090000DFF88814D1F8EC00002802D0D1F8EC0010
:10091000804701BD80B5DFF87414D1F8F0000028DD
:1009200002D0D1F8F000804701BD80B5DFF85C143B
:10093000D1F8F400002802D0D1F8F400804701BDBE
:1009400080B5DFF84814D1F8F800002802D0D1F8BB
:10095000F800804701BD80B5DFF83014D1F8FC0005
:10096000002802D0D1F8FC00804701BD80B5DFF837
:100970001C14D1F80001002802D0D1F800018047F2
:1009800001BD80B5DFF80414D1F80401002802D0BD
:10099000D1F80401804701BD80B5DFF8F013D1F82C
:1009A0000801002802D0D1F80801804701BD80B5B8
:1009B000DFF8D813D1F80C01002802D0D1F80C01CF
:1009C000804701BD80B5DFF8C413D1F810010028BD
:1009D00002D0D1F81001804701BD80B5DFF8AC131B
:1009E000D1F81401002802D0D1F81401804701BDCC
:1009F00080B5DFF89813D1F81801002802D0D1F89B
:100A00001801804701BD80B5DFF88013D1F81C01C3
:100A1000002802D0D1F81C01804701BD80B5DFF865
:100A20006C13D1F82001002802D0D1F820018047B2
:100A300001BD80B5DFF85413D1F82401002802D09D
:100A4000D1F82401804701BD80B5DFF84013D1F80B
:100A50002801002802D0D1F82801804701BD80B5C7
:100A6000DFF82813D1F82C01002802D0D1F82C018E
:100A7000804701BD80B5DFF81413D1F8300100289C
:100A800002D0D1F83001804701BD80B5DFF8FC12FB
:100A9000D1F83401002802D0D1F83401804701BDDB
:100AA00080B5DFF8E812D1F83801002802D0D1F87B
:100AB0003801804701BD80B5DFF8D012D1F83C0184
:100AC000002802D0D1F83C01804701BD80B5AF4974
:100AD000D1F84001002802D0D1F84001804701BD83
:100AE00080B5AA49D1F84401002802D0D1F84401C8
:100AF000804701BD80B5A549D1F84801002802D042
:100B0000D1F84801804701BD80B5A049D1F84C011A
:100B1000002802D0D1F84C01804701BD80B59B4927
:100B2000D1F85001002802D0D1F85001804701BD12
:100B300080B59649D1F85401002802D0D1F854016B
:100B4000804701BD80B59149D1F85801002802D0F5
:100B5000D1F85801804701BD80B58C49D1F85C01BE
:100B6000002802D0D1F85C01804701BD80B58749DB
:100B7000D1F86001002802D0D1F86001804701BDA2
:100B800080B58249D1F86401002802D0D1F864010F
:100B9000804701BD80B57D49D1F86801002802D0A9
:100BA000D1F86801804701BD80B57849D1F86C0162
:100BB000002802D0D1F86C01804701BD80B573498F
:100BC000D1F87001002802D0D1F87001804701BD32
:100BD00080B56E49D1F87401002802D0D1F87401B3
:100BE000804701BD80B56949D1F87801002802D05D
:100BF000D1F87801804701BD80B56449D1F87C0106
:100C0000002802D0D1F87C01804701BD80B55F4942
:100C1000D1F88001002802D0D1F88001804701BDC1
:100C200080B55A49D1F88401002802D0D1F8840156
:100C3000804701BD80B55549D1F88801002802D010
:100C4000D1F88801804701BD80B55049D1F88C01A9
:100C5000002802D0D1F88C01804701BD80B54B49F6
:100C6000D1F89001002802D0D1F89001804701BD51
:100C700080B54649D1F89401002802D0D1F89401FA
:100C8000804701BD80B54149D1F89801002802D0C4
:100C9000D1F89801804701BD80B53C49D1F89C014D
:100CA000002802D0D1F89C01804701BD80B53749AA
:100CB000D1F8A001002802D0D1F8A001804701BDE1
:100CC00080B53249D1F8A401002802D0D1F8A4019E
:100CD000804701BD80B52D49D1F8A801002802D078
:100CE000D1F8A801804701BD80B52849D1F8AC01F1
:100CF000002802D0D1F8AC01804701BD80B523495E
:100D0000D1F8B001002802D0D1F8B001804701BD70
:100D100080B51E49D1F8B401002802D0D1F8B40141
:100D2000804701BD80B51949D1F8B801002802D02B
:100D3000D1F8B801804701BD80B51449D1F8BC0194
:100D4000002802D0D1F8BC01804701BD80B50F4911
:100D5000D1F8C001002802D0D1F8C001804701BD00
:100D6000000080B50949D1F8C401002802D0D1F8AB
:100D7000C401804701BD80B50449D1F8C8010028ED
:100D800002D0D1F8C801804701BD0000C089FF1F13
:100D900080B5DFF8F819D1F8CC01002802D0D1F8DD
:100DA000CC01804701BD80B5DFF8E019D1F8D00152
:100DB000002802D0D1F8D001804701BD80B5DFF80E
:100DC000CC19D1F8D401002802D0D1F8D401804741
:100DD00001BD000080B5DFF8B419D1F8D8010028B2
:100DE00002D0D1F8D801804701BD80B5DFF89C1949
:100DF000D1F8DC01002802D0D1F8DC01804701BD28
:100E000080B5DFF88819D1F8E001002802D0D1F8C8
:100E1000E001804701BD000080B5DFF87019D1F80E
:100E2000E401002802D0D1F8E401804701BD80B57B
:100E3000DFF85819D1F8E801002802D0D1F8E8010C
:100E4000804701BD80B5DFF84419D1F8EC010028D6
:100E500002D0D1F8EC01804701BD000080B5DFF879
:100E60002C19D1F8F001002802D0D1F8F001804708
:100E700001BD80B5DFF81419D1F8F401002802D0C3
:100E8000D1F8F401804701BD80B5DFF80019D1F831
:100E9000F801002802D0D1F8F801804701BD80B5E3
:100EA000DFF8E818D1F8FC01002802D0D1F8FC01E5
:100EB000804701BD10B5DFF850070468DFF84C0724
:100EC0000068012803D1E00701D5AFF30080DFF807
:100ED00040070068012803D1A00701D5AFF30080C7
:100EE000DFF830070068012803D1600701D5AFF3B0
:100EF0000080DFF824070068012803D1200701D50E
:100F0000AFF30080DFF814070068012803D1E00682
:100F100001D5AFF30080DFF808070068012803D18E
:100F2000A00601D5AFF30080DFF8F80600680128BD
:100F300003D1600601D5AFF30080DFF8EC0600684E
:100F4000012803D1200601D5AFF30080DFF8DC06CD
:100F50000068012803D1E00501D5AFF30080DFF878
:100F6000D0060068012803D1A00501D5AFF30080A9
:100F7000DFF8C0060068012803D1600501D5AFF392
:100F80000080DFF8B4060068012803D1200501D5F0
:100F9000AFF30080DFF8A4060068012803D1E00465
:100FA00001D5AFF30080DFF898060068012803D16F
:100FB000A00401D5AFF30080DFF8D4070068012852
:100FC00003D1600401D5AFF30080DFF8F80A0068B0
:100FD000012803D1200401D5AFF3008010BD10B566
:100FE000DFF8B007046800200020DFF8AC070068D5
:100FF000002808D1DFF8A4070068012803D1E00722
:1010000001D5AFF30080DFF898070068002808D109
:10101000DFF890070068012803D1A00701D5AFF3DE
:101020000080DFF884070068002808D1DFF87C071B
:101030000068012803D1600701D5AFF30080DFF815
:1010400070070068002808D1DFF8680700680128E9
:1010500003D1200701D5AFF30080DFF85C070068FB
:10106000002808D1DFF854070068012803D1E00602
:1010700001D5AFF30080DFF848070068002808D1E9
:10108000DFF840070068012803D1A00601D5AFF3BF
:101090000080DFF834070068002808D1DFF82C074B
:1010A0000068012803D1600601D5AFF30080DFF8A6
:1010B00020070068002808D1DFF818070068012819
:1010C00003D1200601D5AFF30080DFF80C070068DC
:1010D000002808D1DFF804070068012803D1E005E3
:1010E00001D5AFF30080DFF8F8060068002808D1CA
:1010F000DFF8F0060068012803D1A00501D5AFF3A1
:101100000080DFF8E4060068002808D1DFF8DC067C
:101110000068012803D1600501D5AFF30080DFF836
:10112000D0060068002808D1DFF8C806006801284A
:1011300003D1200501D5AFF30080DFF8BC060068BD
:10114000002808D1DFF8B4060068012803D1E004C4
:1011500001D5AFF30080DFF8A8060068002808D1A9
:10116000DFF880060068012803D1A00401D5AFF3A1
:101170000080DFF890060068002808D1DFF86C06D0
:101180000068012803D1600401D5AFF30080DFF8C7
:1011900078060068002808D1DFF8580600680128A2
:1011A00003D1200401D5AFF30080DFF860060068AA
:1011B00010F00F10DFF858160968C94311F00F112D
:1011C000084203D0E00301D5AFF30080DFF8440606
:1011D000006810F00F10DFF840160968C94311F0DD
:1011E0000F11084203D0A00301D5AFF30080DFF850
:1011F0002C060068012809D1DFF82406006810F0E9
:101200000F0F03D0600301D5AFF30080DFF81406A1
:101210000068012808D1DFF810060068012803D112
:10122000200301D5AFF30080DFF800060068012835
:1012300008D1DFF8FC050068012803D1E00201D5E0
:10124000AFF30080DFF8EC050068C0F3C010C00702
:1012500003D5600201D5AFF30080DFF86C080068A9
:10126000DFF868180968084010F07F0F03D02002EB
:1012700001D5AFF30080DFF858080068DFF8541894
:101280000968084010F07F0F03D0E00101D5AFF3EB
:101290000080DFF844080068DFF84018096808405B
:1012A00010F07F0F03D0A00101D5AFF30080DFF86D
:1012B00030080068DFF8B41A0968084010F07F0FA2
:1012C00003D0600101D5AFF3008010BD10B5DFF889
:1012D00014080468DFF810080068012808D1DFF856
:1012E0000C080068012803D1E00701D5AFF30080A6
:1012F000DFF8FC070068012808D1DFF8F80700686C
:10130000012803D1A00701D5AFF30080DFF8E8077B
:101310000068012808D1DFF8E4070068012803D13C
:10132000600701D5AFF30080DFF8D407006801281B
:1013300008D1DFF8D0070068012803D1200701D5C4
:10134000AFF30080DFF8C0070068012808D1DFF89C
:10135000BC070068012803D1A00201D5AFF30080CB
:10136000DFF8AC070068012803D1600201D5AFF3B4
:101370000080DFF8FC09006810F4403F03D0200231
:1013800001D5AFF3008010BD70B5DFF888070468A1
:1013900000200020DFF880070068012808D1DFF86E
:1013A0007C070068012803D1E00701D5AFF3008076
:1013B000DFF86C070068012808D1DFF868070068CB
:1013C000012803D1A00701D5AFF30080DFF858074B
:1013D0000068012808D1DFF854070068012803D10C
:1013E000600701D5AFF30080DFF8440700680128EB
:1013F00008D1DFF840070068012803D1200701D594
:10140000AFF30080DFF830070068012808D1DFF86B
:101410002C070068012803D1E00601D5AFF3008056
:10142000DFF81C070068012808D1DFF818070068FA
:10143000012803D1A00601D5AFF30080DFF808072B
:101440000068012808D1DFF804070068012803D1EB
:10145000600601D5AFF30080DFF8180900680128A5
:1014600008D1DFF814090068012803D1200601D54E
:10147000AFF30080DFF804090068012808D1DFF825
:1014800000090068012803D1E00501D5AFF3008011
:10149000DFF8F0582868C00910F4C060DFF8E86889
:1014A000316811F4C061084203D0200501D5AFF3C3
:1014B00000802868C00910F4C050316811F4C05190
:1014C000084203D0E00401D5AFF30080DFF8BC0888
:1014D0000068012808D1DFF8B8080068012803D1A6
:1014E000E00301D5AFF30080DFF8A8080068012809
:1014F00008D1DFF8A4080068012803D1A00301D5B2
:10150000AFF30080DFF894080068012808D1DFF805
:1015100090080068012803D1600301D5AFF3008073
:10152000DFF880080068012808D1DFF87C0800682F
:10153000012803D1200301D5AFF30080DFF86C0848
:101540000068012808D1DFF868080068012803D185
:10155000E00201D5AFF30080DFF8580800680128E9
:1015600008D1DFF854080068012803D1A00201D592
:10157000AFF30080DFF844080068012808D1DFF8E5
:1015800040080068012803D1600201D5AFF3008054
:10159000DFF830080068012808D1DFF82C0800685F
:1015A000012803D1200201D5AFF30080DFF81C0829
:1015B0000068012808D1DFF818080068012803D165
:1015C000E00101D5AFF30080DFF808582868C009B2
:1015D00010F4C060DFF8EC6A316811F4C0610842B1
:1015E00003D0200101D5AFF300802868C00910F4B2
:1015F000C050316811F4C051084203D0E00001D559
:10160000AFF3008070BD00005C120540800AA2426A
:10161000840AA242880AA2428C0AA242900AA242EA
:10162000940AA242980AA2429C0AA242A00AA2429A
:10163000A40AA242A80AA242AC0AA242B00AA2424A
:10164000B40AA24270B5DFF85C09046800200020EB
:10165000DFF854090068012808D1DFF85009006854
:10166000012803D1E00701D5AFF30080DFF840097E
:101670000068012808D1DFF83C090068012803D17F
:10168000A00701D5AFF30080DFF82C09006801281E
:1016900008D1DFF828090068012803D1600701D5C7
:1016A000AFF30080DFF818090068012808D1DFF8DF
:1016B00014090068012803D1200701D5AFF3008089
:1016C000DFF804090068012808D1DFF80009006884
:1016D000012803D1E00601D5AFF30080DFF8F00860
:1016E0000068012808D1DFF8EC080068012803D160
:1016F000A00601D5AFF30080DFF8CC09006801280F
:1017000008D1DFF8C8090068012803D1600601D5B7
:10171000AFF30080DFF8B8090068012808D1DFF8CE
:10172000B4090068012803D1200601D5AFF3008079
:10173000DFF8A4090068012808D1DFF8A0090068D3
:10174000012803D1E00501D5AFF30080DFF89059FF
:101750002868C00910F4C060DFF88869316811F4A6
:10176000C061084203D0200501D5AFF3008028688E
:10177000C00910F4C050316811F4C051084203D0C0
:10178000E00401D5AFF3008070BD0000C089FF1FE9
:10179000B80AA242601205400002A6420001A64219
:1017A0000402A6420401A6420802A6420801A6427B
:1017B0000C02A6420C01A6420082A6420081A6426B
:1017C0000482A6420481A6420882A6420881A6425B
:1017D0000C82A6420C81A6424002A6424001A642CB
:1017E0004402A6424401A6424802A6424801A6423B
:1017F0004C02A6424C01A6424082A6424081A6422B
:101800004482A6424882A6424C82A6420430054049
:101810000C300540043405400C3405400083204260
:101820001004014008832042148220420483204295
:10183000108220420C00009C70B500200020DFF8D0
:10184000A8080468DFF8A408056815F4A040B0F5FE
:10185000A04F03D1E00701D5AFF3008015F4204578
:10186000B5F5204F03D1A00701D5AFF30080DFF815
:1018700080080068DFF87C1809680840000603D07B
:10188000600701D5AFF30080DFF86C08056815F438
:10189000A040B0F5A04F03D1200701D5AFF30080E1
:1018A00015F42045B5F5204F03D1E00601D5AFF37F
:1018B0000080DFF848080068DFF84418096808402D
:1018C000000603D0A00601D5AFF30080DFF834088E
:1018D000056815F4A040B0F5A04F03D1600601D50E
:1018E000AFF3008015F42045B5F5204F03D1200655
:1018F00001D5AFF30080DFF810080068DFF80C189E
:1019000009680840000603D0E00501D5AFF3008068
:10191000DFF8FC07056815F4A040B0F5A04F03D12F
:10192000A00501D5AFF3008015F42045B5F5204F93
:1019300003D1600501D5AFF30080DFF8D807006858
:10194000DFF8D41709680840000603D0200501D548
:10195000AFF30080DFF8C407056815F4A040B0F5C8
:10196000A04F03D1E00401D5AFF3008015F420456A
:10197000B5F5204F03D1A00401D5AFF30080DFF807
:10198000A0070068DFF89C1709680840000603D02C
:10199000600401D5AFF30080DFF87409056815F421
:1019A000A040B0F5A04F03D1E00301D5AFF3008014
:1019B00015F42045B5F5204F03D1A00301D5AFF3B1
:1019C0000080DFF850090068DFF84C19096808400A
:1019D000000603D0600301D5AFF30080DFF83C09B7
:1019E000006801280FD1DFF83829DFF838090068CE
:1019F0001040DFF8341909681140084203D0200371
:101A000001D5AFF30080DFF824090568DFF820096D
:101A10000668B00606D515F00B0F03D0600201D59D
:101A2000AFF3008015EA0600800603D5200201D539
:101A3000AFF3008015EA0600000603D5E00101D5EA
:101A4000AFF3008015EA0600400603D5A00101D5DA
:101A5000AFF30080B00705D5E80503D5600101D5D7
:101A6000AFF30080DFF8CC080568DFF8D80A066815
:101A7000B00606D515F00B0F03D0200101D5AFF34A
:101A8000008015EA0600800603D5E00001D5AFF31B
:101A9000008015EA0600000603D5A00001D5AFF3CB
:101AA000008015EA0600400603D5600001D5AFF3BB
:101AB0000080B00705D5E80503D5002C01D5AFF3AC
:101AC000008070BDBC0AA2421820054004200540D9
:101AD0001824054004240540182805400428054022
:101AE000182C054064120540080248428002484212
:101AF00048024842C0024842088248428082484226
:101B000048824842C08248420008A8422008A842B1
:101B10003080984268120540800A3042000E304200
:101B2000840A3042040E3042880A3042080E3042A5
:101B30008C0A30420C0E3042900A3042100E304275
:101B4000940A3042140E3042980A3042180E304245
:101B500070B500200020DFF8E0070468DFF8DC073C
:101B60000568DFF8DC070668B00606D515F00B0F30
:101B700003D0E00701D5AFF3008015EA0600800628
:101B800003D5A00701D5AFF3008015EA06000006D3
:101B900003D5600701D5AFF3008015EA06004006C3
:101BA00003D5200701D5AFF30080B00705D5E805C0
:101BB00003D5E00601D5AFF30080DFF8880705689C
:101BC000DFF884070668B00606D515F00B0F03D0C2
:101BD000A00601D5AFF3008015EA0600800603D504
:101BE000600601D5AFF3008015EA0600000603D5B4
:101BF000200601D5AFF3008015EA0600400603D5A4
:101C0000E00501D5AFF30080B00705D5E80503D5A1
:101C1000A00501D5AFF30080DFF830070568DFF8D5
:101C200030070668680505D5300603D5200501D5BF
:101C3000AFF30080A80505D5B00603D5E00401D5B3
:101C4000AFF30080280508D516F00100C0B20028C7
:101C500003D1A00401D5AFF30080E80506D516F046
:101C60001D0F03D0600401D5AFF30080DFF8D80862
:101C70000568DFF8D8080668680505D5300603D57D
:101C8000E00301D5AFF30080A80505D5B00603D564
:101C9000A00301D5AFF30080280508D516F0010098
:101CA000C0B2002803D1600301D5AFF30080E8057E
:101CB00006D516F01D0F03D0200301D5AFF3008029
:101CC000DFF88C080568DFF88C080668680505D51C
:101CD000300603D5A00201D5AFF30080A80505D5D5
:101CE000B00603D5600201D5AFF30080280508D502
:101CF00016F00100C0B2002803D1200201D5AFF3D5
:101D00000080E80506D516F01D0F03D0E00101D5CF
:101D1000AFF30080DFF840080568DFF8100A0668B6
:101D2000680505D5300603D5600101D5AFF3008005
:101D3000A80505D5B00603D5200101D5AFF3008075
:101D4000280508D516F00100C0B2002803D1E00034
:101D500001D5AFF30080E80506D516F01D0F03D0BE
:101D6000A00001D5AFF3008070BD0000042C054039
:101D7000049404409C0A30421C0E3042A00A3042B7
:101D8000200E30425480014070800140808A3042F1
:101D9000008E3042848A3042048E3042888A30423B
:101DA000088E30428C8A30420C8E3042908A30420B
:101DB000108E3042948A3042148E3042988A3042DB
:101DC000188E30429C8A30421C8E3042A08A3042AB
:101DD000208E30425484014038B50020DFF8580886
:101DE0000468DFF858080588ADB2E00705D515F09E
:101DF0005000502801D1AFF30080A00705D515F0A1
:101E0000A005A02D01D1AFF30080DFF834080588CC
:101E1000ADB2600705D515F05000502801D1AFF3E1
:101E20000080200705D515F0A005A02D01D1AFF346
:101E30000080DFF810080588ADB2E00605D515F082
:101E40005000502801D1AFF30080A00605D515F051
:101E5000A005A02D01D1AFF30080DFF8EC070588C5
:101E6000ADB2600606D515F44070B0F5407F01D1E3
:101E7000AFF30080200606D515F4C045B5F5C04F78
:101E800001D1AFF30080DFF8C4070588ADB2E005EB
:101E900005D515F01100112801D1AFF30080A00580
:101EA00006D515F48170B0F5817F01D1AFF30080C4
:101EB000600506D541F204000540854201D1AFF32B
:101EC0000080DFF86C080588ADB2E00305D515F099
:101ED0005000502801D1AFF30080A00305D515F0C4
:101EE000A005A02D01D1AFF30080DFF848080588D8
:101EF000ADB2600305D515F05000502801D1AFF305
:101F00000080200305D515F0A005A02D01D1AFF369
:101F10000080DFF824080588ADB2E00205D515F091
:101F20005000502801D1AFF30080A00205D515F074
:101F3000A005A02D01D1AFF30080DFF800080588CF
:101F4000ADB2600206D515F44070B0F5407F01D106
:101F5000AFF30080200206D515F4C045B5F5C04F9B
:101F600001D1AFF30080DFF8D8070588ADB2E001FA
:101F700005D515F01100112801D1AFF30080A001A3
:101F800006D515F48170B0F5817F01D1AFF30080E3
:101F9000600106D541F204000540854201D1AFF34E
:101FA000008031BD6C120540800A3142000E314282
:101FB000840A3142040E3142880A3142080E31420D
:101FC0008C0A31420C0E3142900A3142100E3142DD
:101FD000940A3142140E314238B50020DFF864070C
:101FE0000468DFF864070588ADB2E00705D515F091
:101FF0005000502801D1AFF30080A00705D515F09F
:10200000A005A02D01D1AFF30080DFF840070588BF
:10201000ADB2600705D515F05000502801D1AFF3DF
:102020000080200705D515F0A005A02D01D1AFF344
:102030000080DFF81C070588ADB2E00605D515F075
:102040005000502801D1AFF30080A00605D515F04F
:10205000A005A02D01D1AFF30080DFF8F8060588B8
:10206000ADB2600606D515F44070B0F5407F01D1E1
:10207000AFF30080200606D515F4C045B5F5C04F76
:1020800001D1AFF30080DFF8D0060588ADB2E005DE
:1020900005D515F01100112801D1AFF30080A0057E
:1020A00006D515F48170B0F5817F01D1AFF30080C2
:1020B000600506D541F204000540854201D1AFF329
:1020C000008031BD70840140980A3142180E3142BF
:1020D0009C0A31421C0E3142A00A3142200E31428C
:1020E00054880140708801407C12054080500140B6
:1020F000905001409C500140805401409054014058
:102100009C54014080580140905801409C58014027
:10211000805C0140905C01409C5C0140806001401B
:10212000906001409C60014010B5DFF83006046803
:1021300000200020DFF82806006810F00F00DFF80C
:102140002416096811F00F01084203D0600601D57A
:10215000AFF30080DFF81006006810F00F00DFF822
:102160000C16096811F00F01084203D0200601D5B2
:10217000AFF30080DFF8F805006810F00F00DFF81B
:10218000F415096811F00F01084203D0E00501D5EC
:10219000AFF30080DFF8E005006810F00F00DFF813
:1021A000DC15096811F00F01084203D0A00501D524
:1021B000AFF30080DFF8C8050068012808D1DFF818
:1021C000C4050068012803D1E00301D5AFF3008006
:1021D000DFF8B4050068012808D1DFF8B005006811
:1021E000012803D1A00301D5AFF30080DFF8A005DB
:1021F0000068012809D1DFF89C05006810F0030F82
:1022000003D0600301D5AFF30080DFF88C050068D0
:10221000012808D1DFF884050068012803D12003D4
:1022200001D5AFF30080DFF878050068012808D1F8
:10223000DFF870050068012803D1E00201D5AFF393
:102240000080DFF864050068012809D1DFF85C052B
:10225000006810F0030F03D0A00201D5AFF3008097
:10226000DFF84C050068012808D1DFF84805006850
:10227000012803D1600201D5AFF30080DFF83805F3
:102280000068012808D1DFF834050068012803D16F
:10229000200201D5AFF30080DFF824050068012893
:1022A00009D1DFF82005006810F0030F03D0E0012A
:1022B00001D5AFF30080DFF810050068012808D1D0
:1022C000DFF808050068012803D1A00101D5AFF3AC
:1022D0000080DFF8FC040068012808D1DFF8F4046E
:1022E0000068012803D1600101D5AFF30080DFF859
:1022F000E8040068012809D1DFF8E004006810F064
:10230000030F03D0200101D5AFF3008010BD000002
:1023100080640140906401409C640140000180435E
:10232000FBFC7CF718000C4014000C4000D001406E
:102330000CD0014000D40140801205400010024042
:102340000C100240001402400C14024004C0014072
:1023500014C0014038B5DFF888040468002000206C
:10236000DFF880040068012808D1DFF87C040068E9
:10237000012803D1E00601D5AFF30080DFF86C043B
:102380000068012808D1DFF868040068012803D13B
:10239000A00601D5AFF30080DFF8580400680128DB
:1023A00008D1DFF854040068012803D1600601D584
:1023B000AFF30080DFF84454DFF84404006828409D
:1023C000DFF8401409682940084203D0200601D5EF
:1023D000AFF30080DFF830040068012808D1DFF88F
:1023E0002C040068012803D1E00501D5AFF300807B
:1023F000DFF81C040068012808D1DFF81804006821
:10240000012803D1A00501D5AFF30080DFF808044F
:102410000068012808D1DFF804040068012803D10E
:10242000600501D5AFF30080DFF8F40300682840B1
:10243000DFF8F01309682940084203D0200501D5D0
:10244000AFF30080DFF8E0030068012808D1DFF86F
:10245000DC030068012803D1E00401D5AFF300805C
:10246000DFF8CC030068012808D1DFF8C803006852
:10247000012803D1A00401D5AFF30080DFF8B80331
:102480000068012808D1DFF8B4030068012803D1EF
:10249000600401D5AFF30080DFF8A4030068284092
:1024A000DFF8A01309682940084203D0200401D5B1
:1024B000AFF30080DFF890030068012803D1A00388
:1024C00001D5AFF30080DFF884030068012803D151
:1024D000600301D5AFF30080DFF8740300680128C2
:1024E00008D1DFF870030068012803D1E00201D5AC
:1024F000AFF30080DFF860030068012808D1DFF83F
:102500005C030068012803D1A00201D5AFF300806D
:10251000DFF84C030068012808D1DFF848030068A1
:10252000012803D1600201D5AFF30080DFF8380342
:10253000006810F4403F03D0200201D5AFF30080C3
:1025400031BD00000CD4014004C4014014C401405A
:1025500004000240140002400404024070B5DFF899
:102560000C0305680020C2480068012807D1C14853
:102570000068012803D1E80701D5AFF30080BE4809
:102580000068012807D1BD480068012803D1A807C9
:1025900001D5AFF30080BA480488BA4E30680128EC
:1025A0000BD1B9480068012803D0200080B2002870
:1025B00003D0680701D5AFF30080306801280AD145
:1025C000B1480068012802D0A4B2002C03D028072B
:1025D00001D5AFF30080AD480068012807D1AC48B1
:1025E0000068012803D1E80601D5AFF30080A948AF
:1025F0000068012807D1A8480068012803D1A8066F
:1026000001D5AFF30080A54C2068012807D1A4486C
:102610000088C00503D0680601D5AFF300802068AC
:10262000012807D19E480088C00503D0280601D59F
:10263000AFF3008070BD00008412054018700140A7
:102640001C7001402070014048700140A47001409E
:1026500010B50020002000200020002000200020D5
:10266000002090480068012817D18F4800888F49C2
:1026700009888F4A12888F4B1B8880B289B2084024
:1026800040F2F711084206D192B29BB21A4040F2D2
:102690007F10024201D0AFF3008087480068012814
:1026A00017D18648008886490988864A1288864B51
:1026B0001B8880B289B2084040F2F711084206D167
:1026C00092B29BB21A4040F27F10024201D0AFF3A7
:1026D00000807E480068012827D17D4800787D4928
:1026E00009787D4A12787D4B1B789C061BD4C40761
:1026F00019D4C0B2C9B2084010F0FE0F13D112F0C5
:10270000030003280FD012F00C000C280BD012F09D
:102710003002302A07D013F01800182803D013F025
:10272000C003C02B01D1AFF3008010BD14040240E0
:10273000184802401C4802402048024048480240D5
:10274000A448024088120540184C02401C4C02402C
:10275000204C0240484C0240A44C02408C120540E0
:102760000C7C0140147C01402C7C0140347C0140F5
:102770004C7C0140547C01406C7C0140747C0140E5
:1027800004003C4280003C420C003C4284003C423D
:1027900010003C4208E0014004803C4280803C4202
:1027A0000C803C4284803C4210803C4208E4014062
:1027B00004004442800044420C00444284004442ED
:1027C0001000444208200240048044428080444279
:1027D0000C804442848044421080444208240240D9
:1027E0009012054098009C4298039C428C009C42A9
:1027F0008C039C429C009C429C039C421752F0001C
:1028000004E004401CE0044098809C4298839C4271
:102810008C809C428C839C429C809C429C839C42EA
:1028200004E404401CE4044098009D4298039D4247
:102830008C009D428C039D429C009D429C039D42C6
:1028400004E804401CE80440241CA842341CA842AC
:10285000008390428083904204839042848390421C
:10286000088390428883904204900440941205406B
:10287000E0088042C0088042E4088042C4088042E8
:10288000B00004402014804240168042E08880421C
:10289000C0888042E4888042C4888042209480427C
:1028A000B00404400853A24230FC064038FC064005
:1028B00032FC06403AFC06401453A2423000074066
:1028C00038000740320007403A0007401853A24240
:1028D000A5040740A4040740A6040740BF0407401E
:1028E00080B505490868002801D0012000E00020DB
:1028F000C0B20868804701BDA49AFF1F7047024814
:102900000168491C01607047EC9AFF1F0020704766
:10291000704780B586B0042043490880434800F0E2
:1029200038F900F02CFA00F0F8FA00F070FB012002
:1029300005903F480490642003903E480290002098
:102940000021CDE900013D2300223B493B4800F036
:10295000E5FE01F01BFAFFF7DBFF002007B000BD2A
:1029600010B5314CB4F9000004280DD100212F48D6
:1029700000F0E0F932480068324908600320208006
:1029800001F047FA012000E0032010BD10B501F06E
:1029900031FA0400FFF7BAFF2B490200D2B28A5C79
:1029A000521CC0B20A54200001F028FA002010BDC9
:1029B00038B501F01FFA0400FFF7A8FF0500224810
:1029C0002900C9B2415C491E2A00D2B281542900B3
:1029D000C9B2405C002803D0200001F00FFA22E0C9
:1029E0001A482900C9B2405C002803D0200001F039
:1029F00005FA18E02900C9B20C4800F09BF910480C
:102A00002900C9B250F821000E49EDB251F8251045
:102A1000884203D1200001F0F1F904E001F0F5F95A
:102A2000200001F0EBF931BDF49AFF1F9094FF1FD5
:102A3000AD960000A091FF1F709C0000B098FF1F92
:102A4000D09AFF1FD49AFF1FF89AFF1FF79AFF1F13
:102A500080B50120002100F0DBF901BD38B501F09F
:102A6000C9F90449D1E9004501F0C8F9200029005D
:102A700034BD0000B09AFF1F10B40A00521150F884
:102A80002220012311F01F04D4F11F04A3401A4394
:102A9000491140F8212010BC704710B40A005211AF
:102AA00050F82220012311F01F04D4F11F04A34089
:102AB0009A43491140F8212010BC704702000020C1
:102AC000002101E02030121D11680029FAD012689F
:102AD000110C0904002901D11204103012F07F4FAB
:102AE00001D11202083012F0704F01D11201001D05
:102AF00012F0404F01D19200801C002A00D4401CEB
:102B0000704700604060704742684A6008604268F1
:102B10001160416070470168426811604168006857
:102B2000416070470020704738B501F063F9040038
:102B3000FFF7F8FF050084482900C9B2405C00286F
:102B400003D0200001F05AF922E080482900C9B2E0
:102B5000405C002803D0200001F050F918E0290063
:102B6000C9B27B4800F0E6F87A482900C9B250F8AB
:102B700021007949EDB251F82510884203D1200097
:102B800001F03CF904E001F03CF9200001F036F9D5
:102B900031BD3E2180F80011002105E000220B002C
:102BA000DBB240F82320491C0A00D2B23E2AF5DBF2
:102BB000704738B504000D0015F1100095F8551058
:102BC00044F8210095F8550054F82000FFF799FFCC
:102BD00095F8551014F1F800FFF74EFF95F85500E1
:102BE00094F80011884203D295F8550084F800014A
:102BF00031BD5749C0B251F82000002801D1012051
:102C000000E00020C0B2704738B504000D0095F810
:102C10005500FFF7EEFF002804D029002000FFF741
:102C2000C8FF07E015F1100195F8550054F8200091
:102C3000FFF76AFF31BD38B504000D0095F8550067
:102C4000FFF7D7FF002804D029002000FFF7B1FFCD
:102C50000DE015F1100195F8550054F82000FFF72C
:102C600053FF15F1100095F8551044F8210031BDBF
:102C700080B5FFF7E0FF01BD80B5FFF7C5FF01BDDF
:102C800038B504000D00FFF74DFF95F85510324A96
:102C9000C0B252F8200090F85500814204D12900BA
:102CA0002000FFF7E9FF03E029002000FFF7E0FF25
:102CB00031BD38B5040091F855502800C0B254F821
:102CC00020002A00D2B254F822201268904214D078
:102CD0002800C0B254F8200011F11002904207D130
:102CE0002800C0B254F820000068EDB244F8250076
:102CF00011F11000FFF70FFF1BE000202900C9B2FF
:102D000044F821002900C9B214F1F800FFF7C5FE0C
:102D100094F80001EDB285420BD114F1F800FFF7F1
:102D2000CDFE002802D484F8000102E0012001F069
:102D3000B5F831BD90F8002150F822001038054A4E
:102D4000C9B242F821007047F89AFF1FF79AFF1F97
:102D50009094FF1FD09AFF1FD49AFF1F006040601D
:102D6000704742684A60086042681160416070477D
:102D7000016842681160416800684160704780B531
:102D80006048FFF7EBFF01BD2DE9F8430200D1E9F0
:102D90000E45126800E0126882420FD0B2F128039B
:102DA000D3E90C67584BD3E90089B6EB080677EBFB
:102DB0000907BD42EFD801D3B442ECD2283110004C
:102DC000FFF7CFFFBDE8F18338B5040000200021F4
:102DD0008B4201D182420ED04B48D0E900018018CD
:102DE0005941C4E90C01C4E90E23464D21002800D5
:102DF000FFF7CAFF256431BD10B50400206C002820
:102E000005D014F12800FFF7B3FF0020206410BDA7
:102E10002DE9F04106000F0000F0ECFF80463A4C2F
:102E2000D4E9000180197941C4E90001354D2868D1
:102E30000DE0012001F032F808E0032087F84C0093
:102E4000002087F84D003800FFF7D6FF3000A84279
:102E500053D00668B0F12807D7E90C23D4E9000164
:102E6000121A8B41012000218B4245DC01DB82429A
:102E700042D297F84C00022814D0042829D0052803
:102E800002D00628D9D0D4E7002087F84D000120D1
:102E900087F84C003800FFF7AFFF39001B48FFF7F9
:102EA000EFFED3E73800FFF7A7FF17F11000FFF799
:102EB0005FFF39001548FFF7E3FE022087F84D0059
:102EC000012087F84C00380001F0BFF80020386579
:102ED000BCE73800FFF790FF17F11000FFF748FF3D
:102EE000022087F84D00032087F84C00380001F0DD
:102EF000ACF800203865A9E7FFE7404600F07EFF08
:102F0000BDE8F081B89AFF1FB09AFF1F9094FF1F91
:102F10000060406070470020704710B51A4C2000D8
:102F2000FFF7F6FF14F10800FFF7F2FF14F11000AD
:102F3000FFF7EEFF14F11800FFF7EAFF14F120008D
:102F4000FFF7E6FF14F12800FFF7E2FF10BD38B5E8
:102F5000FFF7E1FF0D4DC0B255F8200084682068EE
:102F60000B49884203D04FF4966000F097FFFFF7BB
:102F7000D2FFC0B255F820000068A04203D24FF43F
:102F8000966000F08BFF31BD089AFF1FD49AFF1F97
:102F9000AFBEADDE01000020002901D1202018E0E5
:102FA0000A0C1204002A01D10904103011F07F4FDD
:102FB00001D10902083011F0704F01D10901001D43
:102FC00011F0404F01D18900801C002900D4401C21
:102FD000C0B2704701000020002901D1202015E077
:102FE0000A0401D1090C10300A0601D1090A08307F
:102FF00011F00F0F01D10909001D11F0030F01D1CC
:103000008908801CC90700D4401CC0B2704770B545
:103010000020DFF86055DFF86065726831682800CD
:1030200000F071F8012408E006EBC400426856F88D
:103030003410286800F0D7F8641CDFF840050068F9
:103040008442F1D370BD0200100000230360082306
:1030500043601144B1F108024168C908C900014444
:10306000083111F10803D31A4B600023CB60CB6801
:103070008B6011600221516010F1080100234B6048
:103080000A60704780B5FFF785FFD0F12000062861
:1030900001D2002005E0142802D35FF0FF3000E0E9
:1030A000801F02BD10B504006069814203D26069CF
:1030B000401A606101E000206061E0680918E16089
:1030C0002069E168884201D2E0682061002A0CD0C2
:1030D0001000FFF7D7FF10F1010F06D004EB8001BD
:1030E0008969491C04EB8000816110BDC26891426E
:1030F00003D2C268521AC26001E00022C260426973
:103100008918416170472DE9FC4104000E0015004B
:10311000002C01D1062064E0002E01D1062060E0E1
:103120003000F61DF608F600AD1B4519ED08ED0060
:10313000002D05D0B5F50060DFF84414884201D3B6
:1031400064204EE0370094210022B846404601F04A
:10315000ADF8B5F19401C908C90098363000FFF701
:1031600072FF10F1080179604168C908C90008447C
:1031700010F10806276016F10801380000F099F9EF
:103180007068C008C00078617068C008C0002D1A5F
:10319000FD60F86838610020B8604FF48561380040
:1031A00000F0FBF80400002C1AD04FF4806000906F
:1031B000202314F12802DFF8CC13200001F0CDF811
:1031C00000B2002806D1BC604FF480613800FFF7E0
:1031D0008DFF03E02100380000F06BF9F8683861DA
:1031E0000020BDE8F681F8B504000E001500002CA3
:1031F00001D106203AE0002E01D1062036E0300051
:10320000F61DF608F600AD1B4519ED08ED00002D82
:1032100001D0402D01D2642028E02900002237008F
:10322000380001F043F8270000F0E4FD3860290081
:103230003000FFF708FF4168C908C900014411F1D7
:1032400008050830616841606060E0686968C90825
:10325000C90008310818E0602000006800F0CEFDC9
:1032600015F10801200000F024F90020F2BD1CB582
:103270000400002C01D100200EE06946A06801F096
:10328000BDF800B2002801D0002005E00022202176
:103290002000FFF707FF009816BD10B50400002CB2
:1032A00001D0002900D10CE0A06801F0CEF800B2F6
:1032B000002802D0012000F0F1FD20212000FFF7BE
:1032C00015FF10BD38B505000C006068C008C000CF
:1032D000FFF7D8FE0100081E0F2817D20020A060BB
:1032E00005EB8100806DE06005EB8100806D0028BA
:1032F00003D005EB8100806D846005EB810084655F
:10330000686D012212FA01F10143696531BD38B5DA
:1033100004000D006868C008C000FFF7B3FE01009C
:10332000081E0F2824D2E868002802D0A868EA689E
:103330009060A868002802D0E868AA68D06004EB12
:103340008100806DA8420FD1E86804EB810290658E
:1033500004EB8100806D002806D1606D012212FA15
:1033600001F130EA010161650020A8600020E860F9
:1033700031BD10B504000800616D5FF0FF32401CE4
:1033800012FA00F00840FFF725FE0F2803DA04EBDD
:103390008000806D00E0002010BD2DE9F84305009D
:1033A0000E00B046002D01D1002080E0002E01D19A
:1033B00000207CE02C0000F01DFD2060A8680028A3
:1033C00011D0A868212E0ED2006900280BD0310040
:1033D0002800FFF74CFF0400002C04D0286800F000
:1033E0000DFD200063E00027F61DF608F600202EF4
:1033F00001D22026FFE73000FFF744FE814610F19E
:10340000010F50D049462800FFF7B3FF0400002CFD
:103410000DD105EB8900846D00E0E468002C04D038
:103420006068C008C000B042F7D3002C3BD0210038
:103430002800FFF76CFF6068C008C0002044083017
:103440006168C908C90016F12802914217D3626861
:10345000D208D200921B083A217911F002010E43E2
:1034600066606168C908C900214408310C6052F0E7
:1034700001024A6001602800FFF724FF03E0416871
:1034800031F002014160606840084000606014F162
:103490000807002F07D042466168C908C9000831F3
:1034A0002800FFF7FFFD286800F0A8FC3800BDE801
:1034B000F28370B504000D00002D01D0002C00D166
:1034C00057E0260000F096FC3060A06800280FD07E
:1034D000A068806885420BD3A0684068854207D207
:1034E00029002000FFF7D9FE206800F087FC40E0AB
:1034F000083D686850F0010068606968C908C90043
:1035000008312000FFF7F2FD6868C008C0002844B9
:1035100010F108063079C0070AD531002000FFF706
:10352000F6FE68687168C908C90008310818686043
:10353000287980070CD52E6831002000FFF7E7FEC0
:1035400070686968C908C9000831081870603500DA
:1035500029002000FFF7B6FE6868C008C0002844B4
:1035600008300560416851F002014160206800F0B8
:1035700045FC70BDD89AFF1F5C82FF1F6482FF1F4D
:1035800001F80700689B00000168814201D1012019
:1035900000E00020C0B2704742684A60086042689C
:1035A00011604160704701684268116041680068BD
:1035B00041607047002070472DE9FE4F050090469E
:1035C000002D01D10620A7E001910198002801D12A
:1035D0000620A1E01098002801D106209CE00E9E54
:1035E000002E01D1062097E00F9F002F02D14FF44B
:1035F000967091E08DF800309DF800003E2802DBC7
:1036000040F2311088E000F0F5FB8246FFF7D2FF70
:10361000DFF88C14085C002805D0504600F0EEFB63
:103620004FF47A7078E0DDF84C909DF800003D286A
:1036300010D1DFF870144846C0B2085C002805D0ED
:10364000504600F0DBFB4FF49A7065E001204A46DB
:10365000D2B28854119C504600F0D0FB5821002271
:10366000AA46504600F022FE2000C0B2002803D037
:10367000012085F84C0004E0032085F84C0001206F
:103680002876DDF850A0DDF848B0CDF80880AE60AF
:10369000B046B9000022404600F008FE019868607C
:1036A0009DF8000085F855009DF8000085F856004B
:1036B000EF6085F857B085F854908DF850A0A86851
:1036C000DFF8E4130160109B029A3900300000F02B
:1036D000D9FE286000F08EFB060015F12001DFF80E
:1036E000CC03FFF759FFE4B2002C11D02900DFF81A
:1036F000C003FFF7C1FADFF8BC03B0F900000328EC
:1037000006D1300000F07AFBFFF70EFA002003E04C
:10371000300000F073FB0020BDE8FE8F2DE9F8417A
:1037200089B0DDE91067129DDDF84CC0DDF850E08E
:10373000159C5FF00008CDF820805FF00008CDF800
:103740001C805FF00108CDF81880E4B20594CDF834
:1037500010E0CDF80CC00295CDE90067DBB2FFF7B1
:103760002BFF0AB0BDE8F0812DE9F04104000D0007
:10377000002000218D4203D1844201D105204BE07D
:1037800000F038FB0600FFF715FFDFF81413085CA4
:10379000002805D0300000F031FB4FF47A703BE098
:1037A000FFF708FF0700DFF810033900C9B2405CDB
:1037B000002804D0300000F021FBC8202CE0DFF806
:1037C000FC8205203900C9B258F8211081F84C005C
:1037D00022002B003800C0B258F82000FFF7F4FA9E
:1037E000FFB258F82710DFF8C802FFF762FA30007E
:1037F00000F004FBFFF798F900F0FCFA0400FFF773
:10380000D9FEC0B258F8200000F029FF05002000C2
:1038100000F0F4FA280000B2BDE8F08138B500F0FD
:10382000E9FA0400FFF7C6FEDFF8901251F82050C5
:10383000200000F0E3FA280032BD0023002801D167
:10384000062015E0002901D1062011E090F84C2057
:10385000072A02D140F233100AE08068021D00E01E
:103860005B1C1000021D00680028F9D00B600020CE
:103870007047F8B504000D0094F855002900C9B24E
:10388000884260D094F84C00012809D054D3032812
:1038900021D024D305281ED021D306281BD04BE0ED
:1038A000DFF80C6221003000FFF703FA84F855506E
:1038B000FFF780FEDFF8041251F82000844204D1A3
:1038C00021003000FFF7D4F903E021003000FFF7BA
:1038D000D3F9002438E084F85550002434E094F8FB
:1038E000556084F85550200000F0AAFE206D407B02
:1038F00002281FD1206D076994F8550097F85510DC
:10390000884201D23C0016E097F85500F6B2B0426A
:103910000ED10021380000F070FB0500280097F858
:103920005510C0B2884201D03C0004E0002402E0FF
:10393000002400E0002407E040F23314200000F0EF
:10394000ADFA200003E00024002C95D10020F2BD48
:1039500070B5C56909E03068B0F11006300000F0BC
:10396000F7FD2661F0696061F4612C00002C09D03C
:10397000656926003000FFF707FE0028EBD0002025
:103980002061F2E770BD70B5040000F033FA050065
:10399000FFF710FE0600FFF70DFE4149085C002806
:1039A00005D0280000F02AFA4FF47A704CE0002C81
:1039B00003D14248F6B250F8264094F855003D280D
:1039C00005D1280000F01AFA4FF497703CE094F803
:1039D0005700012804D0280000F010FA092033E035
:1039E000FFF7E8FD354951F8200084420AD1FFF77E
:1039F000E1FD3149085C002804D0280000F0FEF900
:103A0000C82021E02000FFF7A3FF94F84C00012814
:103A100009D033D3032818D022D3052819D01FD3B7
:103A2000062816D02AE021002148FFF742F9072096
:103A300084F84C0014F12000FFF7B5FD280000F0D9
:103A4000DDF9FFF771F8002070BD072084F84C0005
:103A5000F0E72000FFF7D0F9072084F84C00E9E7F1
:103A60002000FFF7C9F914F11000FFF79CFD0720B3
:103A700084F84C00200000F0E8FADBE7280000F0B2
:103A8000BDF940F23310DFE780B5FFF7C7FE90F8CD
:103A90005700022802D00020FFF775FF01BD00008B
:103AA000F89AFF1FF69AFF1FAFBEADDE089AFF1F00
:103AB0009094FF1FF49AFF1FF79AFF1FD49AFF1FDD
:103AC0000060406070470168814201D1012000E040
:103AD0000020C0B2704742684A60086042681160C6
:103AE0004160704701684268116041680068416048
:103AF00070472DE9F8430200D1E90845126800E05B
:103B0000126882420FD01300D3E90667DFF8C03293
:103B1000D3E90089B6EB080677EB0907BD42EFD879
:103B200001D3B442ECD21000FFF7D5FFBDE8F1831A
:103B300010B50400A068002804D02000FFF7D2FFD1
:103B40000020A06010BD2DE9F041A34CA0464046E6
:103B5000056824E0002086F83D001FE07169300010
:103B6000326990473000FFF7E3FFD6E90C230020CD
:103B700000218B4201D18242ECD0D6E90C01C6E98A
:103B80000801D7E90001D6E9082380185941C6E9A0
:103B90000601B46031002000FFF7ABFF2D684545FA
:103BA0000FD02E008A4FD6E90623D7E90001121A5A
:103BB0008B41012000218B4203DC01DB824200D2D9
:103BC000CCE7BDE8F081D0B50468C9B2012908D0BE
:103BD000022924D0032931D0042948D0062951D004
:103BE00060E094F83C0005285FD194F83D0001287E
:103BF0005BD07748D0E90001D4E90A238018594105
:103C0000C4E90601D4E90A01C4E908017248A060C8
:103C10002100FFF76EFF012084F83D0045E094F895
:103C20003C00052841D194F83D0000283DD02000FB
:103C3000FFF77EFF002084F83D0036E0D0E9022344
:103C400000260027BB4201D1B2422ED094F83C108E
:103C500005292AD194F83D10002926D1D0E9022364
:103C6000C4E90A23D0E90401C4E90C011DE094F879
:103C70003C10052919D194F83D10002915D100698F
:103C8000606112E094F83C0005280ED194F83D00E4
:103C900000280AD194F83E00012806D1002084F8BB
:103CA0003C0002E0012000F0F9F8D0BD10B504009E
:103CB000207905280CD102212000FFF784FF042180
:103CC0002000FFF780FF01212000FFF77CFF03E0C9
:103CD00021792000FFF777FF10BDF8B58AB03D4C81
:103CE00002A8019004A800905FF0FF325FF0FF335C
:103CF000200000F039FD0500FEF7B0FE2DB2002DCA
:103D000003D1334AC2E9000102E0012000F0C6F805
:103D100004A8FFF7CBFF08E02D4AC2E9000102E04A
:103D2000012000F0BBF8FFF70EFF2B4D2800FFF736
:103D3000CAFE0028D3D12D68FEF790FED5E90623F0
:103D4000121A8B4101260027BB42E5DB01DCB2429F
:103D5000E2D302A8019004A80090200000F004FD26
:103D60000500FEF77BFE2A0012B2B2F5C97F03D12F
:103D7000174AC2E90001D6E72DB2002DD0D1144A6E
:103D8000C2E9000104A8FFF791FFCCE780B586B037
:103D90001148FFF795FE1420009018230F4A104990
:103DA0000C4800F0D6FC012005900E4804904FF41A
:103DB000967003900C48029000200021CDE900018C
:103DC0000523002209490A48FFF7A8FC07B000BDF7
:103DD000C89AFF1F6498FF1FC09AFF1FC08FFF1F64
:103DE0007C9C0000DB3C00007082FF1F889C000070
:103DF0000899FF1FEFF3108072B6704780F31088A8
:103E000070471F481F49016070471D481D490160E8
:103E100070471D48FF2101701C48FF2101700020E0
:103E200080F3098816481749016062B6FEE772B64A
:103E3000EFF3098000281DD01EF0100F08BF20ED01
:103E4000108B243880E8F04F114909680860FFF7AB
:103E50007EF80F480F490A680260106890E8F04F3A
:103E600024301EF0100F08BFB0EC108B80F30988CF
:103E700062B6704708480068006880F30888E8E781
:103E800004ED00E00000001022ED00E023ED00E072
:103E9000D49AFF1FD09AFF1F08ED00E080B5044AB6
:103EA0001168002902D000B21168884701BD0000E6
:103EB0006882FF1F0060406070470168814201D145
:103EC000012000E00020C0B2704742684A600860EC
:103ED0004268116041607047016842681160416842
:103EE0000068416070470020704770B505000C0005
:103EF0001600002D01D106201EE0002C01D1062065
:103F00001AE02800FFF7D6FF00202873AC600020DD
:103F100028610020686185F82460FFF76BFF0400CA
:103F200015F11C01DFF87003FFF7CFFF2000FFF74A
:103F300065FF02206873002070BD80B50122FFF785
:103F4000D4FF02BD10B50400200000F056F80100B7
:103F5000080094F85520C0B2904203D0C9B22000A6
:103F6000FFF787FC10BD70B50400002C01D10620BE
:103F700042E0002C01D106203EE0FFF73BFF0500A8
:103F8000FFF7B1FFDFF81413085C002805D0280004
:103F9000FFF734FF4FF47A702EE0607B022804D0E4
:103FA0002800FFF72BFF082026E094F824000128C2
:103FB00004D02800FFF722FF09201DE02600002082
:103FC00060732069002808D021002069FFF7BAFF3C
:103FD00003E03068103800F008FB3000FFF76DFF99
:103FE0000028F6D014F11C00FFF776FF2800FFF739
:103FF00005FFFEF799FD002070BD2DE9F0410D0091
:1040000090F8566037001C3001E061690160046877
:10401000002C16D0AC42F8D0A0464046FFF74DFF2A
:10402000002804D1D8F80000103890F855703800F6
:104030003100C0B2C9B2884200D23E0014F114006F
:10404000E5E73000C0B2BDE8F08180B5016D497B85
:1040500002290BD1016D0A6992F8551090F85500AC
:10406000814203D100211000FFF76CFF01BD2DE953
:10407000F843060014001D00002E01D10620A2E026
:104080008748B0F90000042801D100209BE0FFF729
:10409000B1FE0700FFF727FF8049085C002805D024
:1040A0003800FFF7ABFE4FF47A708CE0707B02288B
:1040B00004D03800FFF7A2FE082084E0FFF713FFCA
:1040C0008046DFF8E0914046C0B259F820003169DF
:1040D000884216D1B06910F1010F09D140F286343F
:1040E0002000FFF7DBFE3800FFF788FE20006AE0C3
:1040F000B069401CB0613800FFF780FE40F28530A7
:1041000061E03269002A16D14046C0B259F8200059
:1041100030614046C0B259F82000C06970615FFA52
:1041200088F859F82800C6610120B0613800FFF70F
:1041300065FE002047E0002000218D4207D1844227
:1041400005D13800FFF75AFE4FF4C8703BE05648DF
:104150004146C9B2405C002804D03800FFF74EFE4B
:10416000C82030E04046C0B259F8200090F8550011
:1041700092F85510884208D24046C0B259F8200043
:1041800090F855101000FFF774FB22002B005FFA27
:1041900088F859F82810300000F003FA3800FFF7CB
:1041A0002DFEFEF7C1FCFFF725FE0400FFF79BFE86
:1041B000C0B259F8200000F052FA05002000FFF7C5
:1041C0001DFE280000B2BDE8F28370B50400002C8B
:1041D00001D106205FE03248B0F90000042801D187
:1041E000002058E0FFF706FE0500FFF77CFE2B4994
:1041F000085C002805D02800FFF700FE4FF47A7015
:1042000049E0607B022804D02800FFF7F7FD082072
:1042100041E0FFF768FE0200224B1000C0B253F8E5
:1042200020002169884205D02800FFF7E7FD4FF400
:10423000617030E0A069401EA061A069002805D02F
:104240002800FFF7DBFD40F2853024E02100D2B2E8
:1042500053F82200FFF776FE26003000FFF72DFE10
:10426000002806D0002020612800FFF7C7FD0020AD
:1042700011E03068B0F11006300000F069F92661F5
:10428000F0696061F4610120A0612800FFF7B6FDCC
:10429000FEF74AFC002070BD109AFF1FF89AFF1F1E
:1042A000F49AFF1FD49AFF1FF79AFF1F62F30F22A1
:1042B00062F31F42401810F0030308D0C91A1FD33D
:1042C000DB0748BF00F8012D28BF20F8022D13009E
:1042D00030B414461546103928BF20E93C00FAD8FE
:1042E000490728BF20E90C0048BF40F8042D890089
:1042F00028BF20F8022D48BF00F8012D30BC7047C0
:10430000C91818BF00F8012DCB0728BF00F8012DF0
:10431000704730B4002513E050F8042BD30744BF96
:10432000A9F101039A18091F042942F8045BFAD283
:1043300013468C0744BF15809B1CC90748BF1D70DE
:1043400050F8041B0029E7D130BC704742684A602E
:1043500008604268116041607047F8B50400002CA5
:1043600001D1062046E0002901D1062042E0002AC2
:1043700001D106203EE00698B0EB430F02D240F296
:10438000951037E003251600F6B22E4201D0072023
:1043900030E02E00F6B2334201D007202AE0EDB221
:1043A000284201D0072025E002EB0007002015007D
:1043B00005EB030604E0401C2E60350005EB030608
:1043C000BE42F8D3BE4200D1401C00262E602160C0
:1043D000A260676060612061E360A261FFF70AFD8F
:1043E000050014F120010448FFF7B0FF2800FFF793
:1043F00005FD0020F2BD0000189AFF1F70B50400F3
:104400000D00002C01D106201EE0002D01D1062058
:104410001AE014F11C06FFF7EDFC3060206900285B
:1044200008D0A06928600068A0612069401E206152
:10443000002502E000202860692514F11C000068B6
:10444000FFF7DCFC280000B270BD70B505000C0061
:10445000002D01D1062014E0002C01D1062010E02F
:1044600015F11C06FFF7C6FC3060A8692060AC613E
:104470002869401C286115F11C000068FFF7BEFC8C
:10448000002070BD00EB8100C008C000001F5FF07D
:1044900080710160001F0360001F1C490160001F44
:1044A0005FF012310160001F5FF003310160001FF7
:1044B0005FF002310160001F5FF001310160001FF9
:1044C0000260001F7FF002010160001F5FF01131E8
:1044D0000160001F5FF010310160001F5FF00931C3
:1044E0000160001F5FF008310160001F5FF00731BD
:1044F0000160001F5FF006310160001F5FF00531B1
:104500000160001F5FF0043101607047893A0000CC
:1045100042684A6008604268116041607047016803
:1045200042681160416800684160704710B5020040
:10453000126800E01268824205D091F8553092F876
:104540004540A342F6D210311000FFF7E1FF10BD45
:1045500010B5040094F84C00022802D004280CD0B6
:1045600013E014F11000FFF7DAFF21003348FEF7E3
:1045700087FB012084F84C000AE014F11000FFF7DB
:10458000CEFF032084F84C0002E00120FFF786FCF8
:104590002000FEF731FC002084F84D00002020654B
:1045A00010BD38B504000D002C655FF0FF305FF0E2
:1045B000FF318B4201D1824202D02800FEF704FC79
:1045C000022085F84C0029001C48FEF772FB207B76
:1045D000012805D115F110012000FFF799FF03E034
:1045E00029002000FFF7A2FF31BD10B5040094F8A8
:1045F0004C00022802D004280CD013E014F1100063
:10460000FFF78DFF21000D48FEF73AFB012084F8EB
:104610004C000AE014F11000FFF781FF032084F83A
:104620004C0002E00120FFF739FC2000FEF7E4FB1C
:10463000032084F84D000020206510BD9094FF1FDA
:1046400010B50400206D007B002807D114F1100084
:10465000FFF765FF2100206DFFF768FF10BD80B5F3
:1046600090F84D00002805D0022808D004D3032874
:1046700008D00AE000200EE040F291100BE04FF469
:10468000C97008E040F2931005E04FF4CA70FFF7DC
:1046900005FC4FF4CA7000B202BD0268531C0360EF
:1046A0001170704700604060704742684A6008605F
:1046B0004268116041607047002070472DE9FC4757
:1046C0000400884616001F00002C01D106203EE0A1
:1046D000002E01D106203AE0B8F1000F01D10620EA
:1046E00035E00A9D002D01D1052030E0002F02D1D8
:1046F00040F2BD202BE0DDF830A0DDF82C9020004A
:10470000FFF7D0FF2661002060630020A0632563CF
:10471000C4F808800020207384F84890FFF76AFBF3
:10472000804614F14001DFF88001FFF7BEFF4046EC
:10473000FFF764FB04206073009553463A00310094
:1047400014F1140000F0B8F8606AE0630020BDE8DE
:10475000F6873EB5069C002502950125019500933C
:104760006343FFF7ABFF3EBD2DE9FC470600140095
:104770001D00002E01D1062094E0DDF82880B8F15C
:10478000000F01D106208DE00B9F002F01D10620E4
:1047900088E0FFF72FFB8146FFF78EFF8246CDE9C9
:1047A000004542485146C9B2405C00280DD0DDE9C1
:1047B0000023002000218B4201D1824205D04846CF
:1047C000FFF71CFB4FF47A706CE0707B042804D078
:1047D0004846FFF713FB082064E016F1140000F0D0
:1047E00036FA00280DD13A00414616F1140000F0C7
:1047F00070F9706B401E70634846FFF7FFFA0020A7
:1048000050E0DDE90023002000218B4209D18242E3
:1048100007D1002038604846FFF7F0FA4FF4C8701F
:1048200040E023485146C9B2405C002806D0002031
:1048300038604846FFF7E2FAC82033E01D4C504686
:10484000C0B254F82000C0F84480DDE900235FFACC
:104850008AFA54F82A103000FFF7A3FE4846FFF703
:10486000CDFAFEF761F9FFF7C5FA0500FFF724FF5F
:1048700080464046C0B254F82000FFF7F0FE060024
:10488000300000B2002806D15FFA88F854F82800FA
:10489000806C386001E0002038602800FFF7AEFA35
:1048A000300000B2BDE8F687309AFF1FF89AFF1F6C
:1048B000F79AFF1FD49AFF1F10B5029C4361016055
:1048C00011444160846100F0CCF9002010BD81B03A
:1048D0000022002200220092020212F47F0252EA19
:1048E000006203001B0A13F47F431A4352EA10626A
:1048F00000926A46802801D201200AE0B0F5804F7C
:1049000001D2022005E0B0F5800F01D2032000E0C3
:104910000520012804D1D27812F07F020A7012E03B
:10492000022806D1937853F080030B70D2784A7036
:1049300009E0032807D1537853F0C0030B70937834
:104940004B70D2788A7001B070477CB504000020AB
:10495000002000906D46220060422844061D300071
:1049600000F08AF9022C08D360422844007910F044
:104970003F00644205EB04010871009900980002B1
:1049800010F47F0050EA01600099090A11F47F4198
:104990000843009950EA116076BD2DE9F8430700FD
:1049A0000E0090460020002068460021016038007B
:1049B00000F03AF9002801D06A2088E078690028E0
:1049C00014D1F8687968884201D13868F860BA690A
:1049D0003100FC68200000F04FF9F868B96908441C
:1049E000F8603969B869091A39616FE0694640466B
:1049F000FFF76DFF0400002C01D0042C01D305202B
:104A000065E0386918EB0401884201D26A205EE053
:104A1000F8687968884201D13868F860F868B96840
:104A2000884214D37868FD68451BA5420FD2002D3B
:104A30000DD02A006946D7F80C90484600F01CF9C2
:104A4000641B3868F8603869401B386100E0002555
:104A5000002C0DD02200684600EB0501FD682800FF
:104A600000F00AF93869001B3861F8682044F860E2
:104A70000020F8687968884201D13868F860F868E1
:104A8000B968884214D37868FC68041B44450FD287
:104A9000002C0DD022003100FD68280000F0ECF859
:104AA0002644B8EB04083868F8603869041B3C6198
:104AB00042463100FC68200000F0DEF8F86840440F
:104AC000F8603869B0EB0808C7F810800020BDE82E
:104AD000F2832DE9FC4706000F0014000020B846C1
:104AE00000206846002101600020300000F0AFF88F
:104AF000002801D06B2095E07069002818D1B068BB
:104B00007168884201D13068B060B269B16838001C
:104B100000F0B2F8B068B1690844B0603169B069BA
:104B200041183161002C01D0B0692060002079E08B
:104B3000B0687168884201D13068B060B0680078B0
:104B4000000614D45FF001097068B568451B4D4537
:104B500021D2002D1FD02A00B168EA46504600F04D
:104B60008BF83068B06030692818306114E0B068A4
:104B7000007810F0C000802802D15FF00209E3E75E
:104B8000B068007810F0C000C02802D15FF00309BF
:104B9000DAE7052046E00025B9EB0500002812D031
:104BA000B9EB0502B168684600EB050A504600F013
:104BB00063F8B068B9EB05010844B060306919EBDF
:104BC0000000451B356169464846FFF7BEFE0500FB
:104BD0002060B0687168884201D13068B060F068C8
:104BE000B168884212D27068B468041BAC420DD21E
:104BF0002200B168B846404600F03EF807EB0408D2
:104C00002D1B3068B0603069241834612A00B16807
:104C1000404600F031F8B0682844B06030692D1883
:104C200035610020BDE8F6874169012904D1016999
:104C3000022901D2012009E04169002905D1016959
:104C40008069814201D2012000E0002070470169A3
:104C500042680068121A914201D1012000E0002050
:104C60007047016881600168C16042680168521A3A
:104C7000026100207047000062B38B0708D0521E0B
:104C800011F8013B00F8013B00F024808B07F6D1BE
:104C9000830740F0208000BF103A07D330B4B1E85A
:104CA0003810103AA0E83810F9D230BC530724BFAE
:104CB000B1E80810A0E8081044BF51F8043B40F8E0
:104CC000043BD20724BF31F8022B20F8022B44BF4B
:104CD0000B7803707047121F17D35B0009D151F88E
:104CE000043B20F8023B1B0C121F20F8023BF6D2BB
:104CF0000BE051F8043B00F8013B1B0A20F8023B93
:104D00001B0C121F00F8013BF3D238BF121D521EBC
:104D100024BF11F8013B00F8013BF8D870470000B0
:104D2000F8B5DFF86449DFF86429DFF8641920007A
:104D300001F088F8DFF85C29DFF85C19200001F049
:104D400081F8DFF85829DFF85819200001F07AF8C7
:104D5000DFF85029DFF85019200001F073F8DFF870
:104D60004C29DFF84C19200001F06CF8DFF84429D9
:104D7000DFF84419200001F065F853A52A00DFF898
:104D80003C19200001F05EF850A63200DFF830191F
:104D9000200001F057F84EA2DFF82819200001F09A
:104DA00051F8DFF824793A00DFF82019200001F0EB
:104DB00049F83200DFF81819200001F043F83A00F2
:104DC000DFF81019200001F03DF82A00DFF808197B
:104DD000200001F037F82A00DFF80019200001F068
:104DE00031F82A00DFF8101C200001F02BF8002019
:104DF000F2BD80B50A200021FEF7B6FCDFF8C40A38
:104E00000168491C016001BD38B586B0DFF8B44ABD
:104E100000202060DFF8B00A01F014F8DFF8AC5A87
:104E200001200590DFF8A80A049020200390DFF805
:104E3000DC0A029032200021CDE900010223002289
:104E4000DFF8CC1A2800FEF769FC00B2002814D065
:104E5000DFF8C00ADFF8C01A019140F20111009199
:104E6000DFF8F43AD0F894104A68D0F8940001685A
:104E7000DFF8880B00F0E6FF24E0DFF8E00A00F03E
:104E8000E1FFC8200021FEF76FFC2800FEF77BFD44
:104E90002068012814D0DFF87C0ADFF8C41A0191D9
:104EA00040F207110091DFF8B03AD0F894104A6848
:104EB000D0F894000168DFF8440B00F0C3FF01E074
:104EC0000020206007B030BD28302900283129009B
:104ED00028342900704770477047704778B589B00B
:104EE00006A8DFF8801A91E81C0080E81C0000206A
:104EF000DFF8D04900202060002509E006A9DFF88E
:104F0000000B00F09FFF14200021FEF72DFC6D1C0C
:104F1000042D80F282802900DFF8E80A00F092FF79
:104F2000022095FBF0F100FB1150002837D0012042
:104F30000590DFF89C09049020200390681E022150
:104F400090FBF1F180204143DFF8C0090844029052
:104F500032200021CDE900010223002206A9DFF85A
:104F60006C09582606FB05F63044FEF7D7FB00B265
:104F70000028C3D0DFF89C09DFF89C19019140F2AA
:104F80002B110091DFF8D039D0F894104A68D0F88E
:104F900094000168DFF8640A00F054FF69E0012022
:104FA0000590DFF82C09049040200390022095FB27
:104FB000F0F14FF480704143DFF84C0A084402904E
:104FC00032200021CDE900010223002206A9DFF8EA
:104FD000FC08582606FB05F63044FEF79FFB00B29E
:104FE000002805D106A9DFF8180A00F02BFF8AE790
:104FF000DFF82009DFF82019019140F2311100910A
:10500000DFF85439D0F894104A68D0F89400016859
:10501000DFF8E80900F016FF2BE04FF4FA700021EA
:10502000FEF7A2FB002508E0DFF8A008582101FBED
:1050300005F10844FEF7A7FC6D1C042DF4DB206885
:10504000042814D0DFF8CC08DFF8C01901914FF420
:105050009E710091DFF80039D0F894104A68D0F8BA
:1050600094000168DFF8940900F0ECFE01E00020F4
:1050700020600AB070BD78B589B0002001241BE023
:105080000A200021FEF770FB306801284DD1322044
:1050900094FBF0F100FB1140002805D10A22210009
:1050A000DFF86C0900F0CEFE2800FEF76CFC0A2049
:1050B0000021FEF759FB641C0B2C4BDADFF8046867
:1050C000002030602100DFF84C0900F0BBFEDFF863
:1050D000FC5701200590DFF8F8070490202003908A
:1050E000DFF82808029032200021CDE900010223D8
:1050F000002206A92800FEF711FB00B20028BFD04D
:10510000DFF81008DFF81018019140F24B11009100
:10511000DFF84438D0F894104A68D0F89400016859
:10512000DFF8D80800F08EFE14E0DFF8E807DFF8BB
:105130003018019140F24D110091DFF81C38D0F881
:1051400094104A68D0F894000168DFF8B00800F0C5
:1051500079FEFFE70AB070BD38B50020002411E0E9
:10516000DFF8B4585FF0FF325FF0FF332800FEF73E
:105170007EFFDFF850070168491E01602800FFF735
:1051800024F8641C0A2CEBDBDFF8100C0168491CC6
:10519000016031BD38B50020002411E0DFF87858F7
:1051A0005FF0FF325FF0FF332800FEF760FFDFF8AB
:1051B00014070168491C01602800FFF706F8641C09
:1051C0000A2CEBDBDFF8D40B0168491C016031BD10
:1051D0003EB5DFF84448DFF8A01A2000FEF7ADFE28
:1051E00000B2002814D0DFF82C07DFF82C1701914B
:1051F0004FF4C4710091DFF86037D0F894104A681A
:10520000D0F894000168DFF8F40700F01BFE71E0AD
:10521000642200232000FEF72AFF00B2002814D0E9
:10522000DFF8F006DFF8F016019140F28B110091E3
:10523000DFF82437D0F894104A68D0F89400016859
:10524000DFF8B80700F0FEFD54E0642200232000E0
:10525000FEF70DFF40F2853500B2A84214D0DFF80A
:10526000B406DFF8181A01914FF4C7710091DFF806
:10527000E836D0F894104A68D0F894000168DFF856
:105280007C0700F0DFFD35E02000FEF79EFF00B256
:10529000A84214D0DFF87C06DFF8E019019140F253
:1052A00091110091DFF8B036D0F894104A68D0F828
:1052B00094000168DFF8440700F0C4FD1AE0200004
:1052C000FEF751FE00B2002814D0DFF84806DFF8E0
:1052D000481601914FF4CA710091DFF87C36D0F87E
:1052E00094104A68D0F894000168DFF8100700F0C5
:1052F000A9FDFFE737BD2DE9F84189B0002004245E
:105300000020022094FBF0F100FB1140002814D093
:10531000DFF80006DFF8881A01914FF4CF71009191
:10532000DFF83436D0F894104A68D0F89400016859
:10533000DFF8C80600F086FDDCE0DFF888550020C5
:105340002860DFF8586A00203060DFF8CC76DFF89C
:1053500028193800FEF7F1FD00B2002814D0DFF85C
:10536000B405DFF8B415019140F2A3110091DFF804
:10537000E835D0F894104A68D0F894000168DFF856
:105380007C0600F05FFDB5E05FF0000805E001205D
:105390000021FEF7E9F918F10108A04580F27F80AD
:1053A000022098FBF0F100FB1180002839D0012089
:1053B0000590DFF8F009049020200390B8F1010077
:1053C000022190FBF1F180204143DFF840050844C1
:1053D000029032200021CDE900010223002206A91B
:1053E000DFF8E8045FF0580C0CFB08FC6044FEF7A3
:1053F00095F900B20028CAD0DFF81805DFF81815B3
:1054000001914FF4D4710091DFF84C35D0F894102D
:105410004A68D0F894000168DFF8E00500F012FD5A
:1054200068E001200590DFF8800904904020039097
:10543000022098FBF0F14FF480704143DFF8C8057B
:105440000844029032200021CDE90001022300220D
:1054500006A9DFF878045FF0580C0CFB08FC6044E8
:10546000FEF75CF900B2002800D190E7DFF8A40451
:10547000DFF8A414019140F2AD110091DFF8D834A7
:10548000D0F894104A68D0F894000168DFF86C05F1
:1054900000F0D8FC2EE064200021FEF765F93068AA
:1054A000A042F8DB002608E0DFF82004582101FBC9
:1054B00006F10844FEF767FA761CA642F4DB3800D2
:1054C000FEF751FD2868002814D0DFF84804DFF803
:1054D000DC18019140F2B9110091DFF87C34D0F86A
:1054E00094104A68D0F894000168DFF8100500F0C5
:1054F000A9FCFFE70AB0BDE8F08138B50020002420
:1055000011E0DFF8AC585FF0FF325FF0FF332800A6
:1055100000F07FFDDFF8AC030168491E0160280040
:1055200000F06EFD641C0A2CEBDBDFF870080168EC
:10553000491C016031BD38B50020002411E0DFF8BE
:1055400070585FF0FF325FF0FF33280000F061FD1C
:10555000DFF870030168491C0160280000F050FD6D
:10556000641C0A2CEBDBDFF834080168491C01607D
:1055700031BD1CB50020DFF838480022DFF83418B0
:10558000200000F0B4FC00B2002814D0DFF884033F
:10559000DFF8841301914FF4EF710091DFF8B83315
:1055A000D0F894104A68D0F894000168DFF84C04F1
:1055B00000F048FC66E064220023200000F029FD92
:1055C00000B2B0F5C97F13D0D248DFF8EC170191D3
:1055D00040F2E1110091DFF88033D0F894104A686E
:1055E000D0F894000168DFF8140400F02BFC49E0C7
:1055F000200000F005FD00B2002811D0C548C649C2
:1056000001914FF4F2710091D34BD0F894104A6895
:10561000D0F894000168DFF8E40300F013FC31E0F7
:1056200064220023200000F0F4FC00B2002811D016
:10563000B848B949019140F2E7110091C64BD0F842
:1056400094104A68D0F894000168DFF8B00300F0C5
:10565000F9FB17E0200000F04FFC00B2002811D049
:10566000AC48AD4901914FF4F5710091BA4BD0F8B7
:1056700094104A68D0F894000168DFF8800300F0C5
:10568000E1FBFFE713BD0000F49A00003C9D000021
:10569000989B0000BC990000489D0000A89B00005A
:1056A000089B0000D89D0000B89B0000F8980000FF
:1056B000D4990000E09D00001C9B0000EC990000C4
:1056C0001499000030990000E89D00002C9800001B
:1056D0004C980000049A00004C9900001C9A0000AD
:1056E0002DE9F84189B0002006A8002100220023FE
:1056F00080E80E0004240020E00711D58548DFF87B
:10570000BC1601914FF4FA710091934BD0F89410AC
:105710004A68D0F894000168B84800F093FBCDE0E7
:10572000DFF88C560122DFF88C16280000F0DFFB32
:1057300000B2002810D077487749019140F2F71164
:105740000091854BD0F894104A68D0F89400016815
:10575000AA4800F077FBB1E05A4E00203060DFF835
:105760003C76002038605FF0000805E00120002151
:10577000FDF7FAFF18F10108A04578D218F10102EF
:10578000A04906A800F0B0FC022098FBF0F100FB55
:105790001180002833D001200590DFF82406049002
:1057A00020200390B8F10100022190FBF1F180204C
:1057B000414356480844029032200021CDE90001BF
:1057C0000223002206A941485FF0580C0CFB08FC9C
:1057D0006044FDF7A3FF00B20028C7D04D484E49F2
:1057E00001914FF4007100915B4BD0F894104A681E
:1057F000D0F894000168814800F024FB5EE00120AD
:105800000590DFF8C005049040200390022098FB2B
:10581000F0F14FF4807041437B48084402903220FD
:105820000021CDE900010223002206A927485FF0EC
:10583000580C0CFB08FC6044FDF770FF00B2002818
:1058400000D193E733483449019140F2052100919A
:10585000414BD0F894104A68D0F89400016867482A
:1058600000F0F0FA2AE064200021FDF77DFF38689F
:10587000A042F8D3002707E01448582101FB07F1A4
:105880000844FEF780F87F1CA742F5D3280000F0FB
:1058900033FB3068002811D01E48DFF81015019145
:1058A0004FF4047100912C4BD0F894104A68D0F852
:1058B00094000168514800F0C5FAFFE70AB0BDE85E
:1058C000F0810000DC9AFF1F309B00003093FF1F27
:1058D000F34D00001CB500200190DFF8EC4401A856
:1058E00000905FF0FF325FF0FF33200000F018FD02
:1058F000019914F1480000F00EFD019800680A2893
:10590000EBD1DFF8C80400F09DFA13BD9495FF1F9A
:10591000F09D00006C97FF1F349A00001CB500201A
:105920000190DFF8A44401A800905FF0FF325FF01F
:10593000FF3314F1480000F0F3FC019914F19000DA
:1059400000F0E9FC019800680A28EAD1DFF8800439
:1059500000F078FA13BD0000DC9500004C9A0000BE
:10596000C89B0000549D00001FB50020002002903D
:10597000DFF854440823DFF85C24DFF85C142000CF
:1059800000F031FC00B2002813D0DFF85004DFF83B
:105990005014019140F23D210091DFF84834D0F8D5
:1059A00094104A68D0F894000168144800F04AFA4C
:1059B00021E002A8009064220023200000F0B0FC47
:1059C00000B2B0F5C97F13D0DFF81004DFF8E81398
:1059D00001914FF410710091DFF80834D0F8941061
:1059E0004A68D0F894000168044800F02BFA02E0FD
:1059F000200000F0FEFB1FBD6899000084990000A4
:105A0000D89B0000F89D0000C08BFF1FE89B0000A2
:105A1000649A0000609D0000389AFF1F2DE9F8434A
:105A200088B0002000200020069000200790DFF8BA
:105A30009843DFF8A06308233200DFF8AC1320009E
:105A400000F0D1FB00B2002814D0DFF89003DFF89B
:105A50009013019140F24D210091DFF88833D0F886
:105A600094104A68D0F894000168DFF8800300F0D1
:105A7000E9F9FDE014F14808082316F12002DFF8E7
:105A80007013404600F0AFFB00B2002814D0DFF8DE
:105A90004C03DFF84C13019140F24F210091DFF8E5
:105AA0004433D0F894104A68D0F894000168DFF8C5
:105AB0003C0300F0C7F9DBE014F19005082316F170
:105AC0004002CC49280000F08EFB00B2002810D024
:105AD000C248C349019140F251210091C14BD0F815
:105AE00094104A68D0F894000168C04800F0AAF900
:105AF000BEE0C14EDFF8049301200590C048049039
:105B000040200390CDF8089032200021CDE900011B
:105B100002230022BB493000FDF700FE00B200283E
:105B200010D0AE48AE49019140F255210091AD4BE5
:105B3000D0F894104A68D0F894000168AB4800F09F
:105B400081F995E016F1580701200590AE480490C0
:105B50004020039019F58070029032200021CDE999
:105B6000000102230022A9493800FDF7D7FD00B249
:105B7000002810D099489A49019140F2592100918A
:105B8000984BD0F894104A68D0F894000168974870
:105B900000F058F96CE05FF0010917E007A80090E9
:105BA0005FF0FF325FF0FF33280000F0B9FB00B276
:105BB000002828D1069807990968884234D10A221A
:105BC0004946934800F03EF919F10109B9F10B0F6C
:105BD0003BDACDF8189006A9200000F09CFB00B23B
:105BE0000028DBD07D487E4901914FF41871009167
:105BF0007C4BD0F894104A68D0F8940001687B4838
:105C000000F020F934E075487549019140F26621B1
:105C10000091744BD0F894104A68D0F89400016851
:105C2000724800F00FF923E06C487A49019140F284
:105C3000672100916B4BD0F894104A68D0F894001B
:105C400001686A4800F0FEF812E064200021FDF7C8
:105C50008BFD200000F0CDFA404600F0CAFA280083
